{
	"FundMe.sol": {
		"FundeMe": {
			"abi": [
				{
					"inputs": [],
					"name": "getConversionRate",
					"outputs": [
						{
							"internalType": "uint256",
							"name": "",
							"type": "uint256"
						}
					],
					"stateMutability": "view",
					"type": "function"
				},
				{
					"inputs": [],
					"name": "getPrice",
					"outputs": [
						{
							"internalType": "uint256",
							"name": "",
							"type": "uint256"
						}
					],
					"stateMutability": "view",
					"type": "function"
				}
			],
			"devdoc": {
				"kind": "dev",
				"methods": {},
				"version": 1
			},
			"evm": {
				"assembly": "    /* \"FundMe.sol\":174:711  contract FundeMe{... */\n  mstore(0x40, 0x80)\n    /* \"FundMe.sol\":218:219  5 */\n  0x05\n    /* \"FundMe.sol\":197:219  uint256 minimumUsd = 5 */\n  0x00\n  sstore\n    /* \"FundMe.sol\":174:711  contract FundeMe{... */\n  callvalue\n  dup1\n  iszero\n  tag_1\n  jumpi\n  0x00\n  dup1\n  revert\ntag_1:\n  pop\n  dataSize(sub_0)\n  dup1\n  dataOffset(sub_0)\n  0x00\n  codecopy\n  0x00\n  return\nstop\n\nsub_0: assembly {\n        /* \"FundMe.sol\":174:711  contract FundeMe{... */\n      mstore(0x40, 0x80)\n      callvalue\n      dup1\n      iszero\n      tag_1\n      jumpi\n      0x00\n      dup1\n      revert\n    tag_1:\n      pop\n      jumpi(tag_2, lt(calldatasize, 0x04))\n      shr(0xe0, calldataload(0x00))\n      dup1\n      0x98d5fdca\n      eq\n      tag_3\n      jumpi\n      dup1\n      0xf36089ec\n      eq\n      tag_4\n      jumpi\n    tag_2:\n      0x00\n      dup1\n      revert\n        /* \"FundMe.sol\":302:569  function getPrice() public view returns(uint256){... */\n    tag_3:\n      tag_5\n      tag_6\n      jump\t// in\n    tag_5:\n      mload(0x40)\n      tag_7\n      swap2\n      swap1\n      tag_8\n      jump\t// in\n    tag_7:\n      mload(0x40)\n      dup1\n      swap2\n      sub\n      swap1\n      return\n        /* \"FundMe.sol\":577:708  function getConversionRate() public view returns(uint256){... */\n    tag_4:\n      tag_9\n      tag_10\n      jump\t// in\n    tag_9:\n      mload(0x40)\n      tag_11\n      swap2\n      swap1\n      tag_8\n      jump\t// in\n    tag_11:\n      mload(0x40)\n      dup1\n      swap2\n      sub\n      swap1\n      return\n        /* \"FundMe.sol\":302:569  function getPrice() public view returns(uint256){... */\n    tag_6:\n        /* \"FundMe.sol\":342:349  uint256 */\n      0x00\n        /* \"FundMe.sol\":361:392  AggregatorV3Interface priceFeed */\n      dup1\n        /* \"FundMe.sol\":417:459  0x694AA1769357215DE4FAC081bf1f309aDC325306 */\n      0x694aa1769357215de4fac081bf1f309adc325306\n        /* \"FundMe.sol\":361:460  AggregatorV3Interface priceFeed = AggregatorV3Interface(0x694AA1769357215DE4FAC081bf1f309aDC325306) */\n      swap1\n      pop\n        /* \"FundMe.sol\":473:485  int256 price */\n      0x00\n        /* \"FundMe.sol\":492:501  priceFeed */\n      dup2\n        /* \"FundMe.sol\":492:517  priceFeed.latestRoundData */\n      0xffffffffffffffffffffffffffffffffffffffff\n      and\n      0xfeaf968c\n        /* \"FundMe.sol\":492:519  priceFeed.latestRoundData() */\n      mload(0x40)\n      dup2\n      0xffffffff\n      and\n      0xe0\n      shl\n      dup2\n      mstore\n      0x04\n      add\n      0xa0\n      mload(0x40)\n      dup1\n      dup4\n      sub\n      dup2\n      dup7\n      gas\n      staticcall\n      iszero\n      dup1\n      iszero\n      tag_14\n      jumpi\n      returndatasize\n      0x00\n      dup1\n      returndatacopy\n      revert(0x00, returndatasize)\n    tag_14:\n      pop\n      pop\n      pop\n      pop\n      mload(0x40)\n      returndatasize\n      not(0x1f)\n      0x1f\n      dup3\n      add\n      and\n      dup3\n      add\n      dup1\n      0x40\n      mstore\n      pop\n      dup2\n      add\n      swap1\n      tag_15\n      swap2\n      swap1\n      tag_16\n      jump\t// in\n    tag_15:\n        /* \"FundMe.sol\":471:519  (,int256 price,,,) = priceFeed.latestRoundData() */\n      pop\n      pop\n      pop\n      swap2\n      pop\n      pop\n        /* \"FundMe.sol\":552:559  10 ** 8 */\n      0x05f5e100\n        /* \"FundMe.sol\":545:550  price */\n      dup2\n        /* \"FundMe.sol\":545:560  price/(10 ** 8) */\n      tag_17\n      swap2\n      swap1\n      tag_18\n      jump\t// in\n    tag_17:\n        /* \"FundMe.sol\":530:561  return uint256(price/(10 ** 8)) */\n      swap3\n      pop\n      pop\n      pop\n        /* \"FundMe.sol\":302:569  function getPrice() public view returns(uint256){... */\n      swap1\n      jump\t// out\n        /* \"FundMe.sol\":577:708  function getConversionRate() public view returns(uint256){... */\n    tag_10:\n        /* \"FundMe.sol\":626:633  uint256 */\n      0x00\n        /* \"FundMe.sol\":645:661  uint256 ethPrice */\n      dup1\n        /* \"FundMe.sol\":664:674  getPrice() */\n      tag_20\n        /* \"FundMe.sol\":664:672  getPrice */\n      tag_6\n        /* \"FundMe.sol\":664:674  getPrice() */\n      jump\t// in\n    tag_20:\n        /* \"FundMe.sol\":645:674  uint256 ethPrice = getPrice() */\n      swap1\n      pop\n        /* \"FundMe.sol\":692:700  ethPrice */\n      dup1\n        /* \"FundMe.sol\":685:700  return ethPrice */\n      swap2\n      pop\n      pop\n        /* \"FundMe.sol\":577:708  function getConversionRate() public view returns(uint256){... */\n      swap1\n      jump\t// out\n        /* \"#utility.yul\":7:84   */\n    tag_21:\n        /* \"#utility.yul\":44:51   */\n      0x00\n        /* \"#utility.yul\":73:78   */\n      dup2\n        /* \"#utility.yul\":62:78   */\n      swap1\n      pop\n        /* \"#utility.yul\":7:84   */\n      swap2\n      swap1\n      pop\n      jump\t// out\n        /* \"#utility.yul\":90:208   */\n    tag_22:\n        /* \"#utility.yul\":177:201   */\n      tag_39\n        /* \"#utility.yul\":195:200   */\n      dup2\n        /* \"#utility.yul\":177:201   */\n      tag_21\n      jump\t// in\n    tag_39:\n        /* \"#utility.yul\":172:175   */\n      dup3\n        /* \"#utility.yul\":165:202   */\n      mstore\n        /* \"#utility.yul\":90:208   */\n      pop\n      pop\n      jump\t// out\n        /* \"#utility.yul\":214:436   */\n    tag_8:\n        /* \"#utility.yul\":307:311   */\n      0x00\n        /* \"#utility.yul\":345:347   */\n      0x20\n        /* \"#utility.yul\":334:343   */\n      dup3\n        /* \"#utility.yul\":330:348   */\n      add\n        /* \"#utility.yul\":322:348   */\n      swap1\n      pop\n        /* \"#utility.yul\":358:429   */\n      tag_41\n        /* \"#utility.yul\":426:427   */\n      0x00\n        /* \"#utility.yul\":415:424   */\n      dup4\n        /* \"#utility.yul\":411:428   */\n      add\n        /* \"#utility.yul\":402:408   */\n      dup5\n        /* \"#utility.yul\":358:429   */\n      tag_22\n      jump\t// in\n    tag_41:\n        /* \"#utility.yul\":214:436   */\n      swap3\n      swap2\n      pop\n      pop\n      jump\t// out\n        /* \"#utility.yul\":523:640   */\n    tag_24:\n        /* \"#utility.yul\":632:633   */\n      0x00\n        /* \"#utility.yul\":629:630   */\n      dup1\n        /* \"#utility.yul\":622:634   */\n      revert\n        /* \"#utility.yul\":769:874   */\n    tag_26:\n        /* \"#utility.yul\":805:812   */\n      0x00\n        /* \"#utility.yul\":845:867   */\n      0xffffffffffffffffffff\n        /* \"#utility.yul\":838:843   */\n      dup3\n        /* \"#utility.yul\":834:868   */\n      and\n        /* \"#utility.yul\":823:868   */\n      swap1\n      pop\n        /* \"#utility.yul\":769:874   */\n      swap2\n      swap1\n      pop\n      jump\t// out\n        /* \"#utility.yul\":880:1000   */\n    tag_27:\n        /* \"#utility.yul\":952:975   */\n      tag_47\n        /* \"#utility.yul\":969:974   */\n      dup2\n        /* \"#utility.yul\":952:975   */\n      tag_26\n      jump\t// in\n    tag_47:\n        /* \"#utility.yul\":945:950   */\n      dup2\n        /* \"#utility.yul\":942:976   */\n      eq\n        /* \"#utility.yul\":932:994   */\n      tag_48\n      jumpi\n        /* \"#utility.yul\":990:991   */\n      0x00\n        /* \"#utility.yul\":987:988   */\n      dup1\n        /* \"#utility.yul\":980:992   */\n      revert\n        /* \"#utility.yul\":932:994   */\n    tag_48:\n        /* \"#utility.yul\":880:1000   */\n      pop\n      jump\t// out\n        /* \"#utility.yul\":1006:1147   */\n    tag_28:\n        /* \"#utility.yul\":1062:1067   */\n      0x00\n        /* \"#utility.yul\":1093:1099   */\n      dup2\n        /* \"#utility.yul\":1087:1100   */\n      mload\n        /* \"#utility.yul\":1078:1100   */\n      swap1\n      pop\n        /* \"#utility.yul\":1109:1141   */\n      tag_50\n        /* \"#utility.yul\":1135:1140   */\n      dup2\n        /* \"#utility.yul\":1109:1141   */\n      tag_27\n      jump\t// in\n    tag_50:\n        /* \"#utility.yul\":1006:1147   */\n      swap3\n      swap2\n      pop\n      pop\n      jump\t// out\n        /* \"#utility.yul\":1153:1229   */\n    tag_29:\n        /* \"#utility.yul\":1189:1196   */\n      0x00\n        /* \"#utility.yul\":1218:1223   */\n      dup2\n        /* \"#utility.yul\":1207:1223   */\n      swap1\n      pop\n        /* \"#utility.yul\":1153:1229   */\n      swap2\n      swap1\n      pop\n      jump\t// out\n        /* \"#utility.yul\":1235:1355   */\n    tag_30:\n        /* \"#utility.yul\":1307:1330   */\n      tag_53\n        /* \"#utility.yul\":1324:1329   */\n      dup2\n        /* \"#utility.yul\":1307:1330   */\n      tag_29\n      jump\t// in\n    tag_53:\n        /* \"#utility.yul\":1300:1305   */\n      dup2\n        /* \"#utility.yul\":1297:1331   */\n      eq\n        /* \"#utility.yul\":1287:1349   */\n      tag_54\n      jumpi\n        /* \"#utility.yul\":1345:1346   */\n      0x00\n        /* \"#utility.yul\":1342:1343   */\n      dup1\n        /* \"#utility.yul\":1335:1347   */\n      revert\n        /* \"#utility.yul\":1287:1349   */\n    tag_54:\n        /* \"#utility.yul\":1235:1355   */\n      pop\n      jump\t// out\n        /* \"#utility.yul\":1361:1502   */\n    tag_31:\n        /* \"#utility.yul\":1417:1422   */\n      0x00\n        /* \"#utility.yul\":1448:1454   */\n      dup2\n        /* \"#utility.yul\":1442:1455   */\n      mload\n        /* \"#utility.yul\":1433:1455   */\n      swap1\n      pop\n        /* \"#utility.yul\":1464:1496   */\n      tag_56\n        /* \"#utility.yul\":1490:1495   */\n      dup2\n        /* \"#utility.yul\":1464:1496   */\n      tag_30\n      jump\t// in\n    tag_56:\n        /* \"#utility.yul\":1361:1502   */\n      swap3\n      swap2\n      pop\n      pop\n      jump\t// out\n        /* \"#utility.yul\":1508:1630   */\n    tag_32:\n        /* \"#utility.yul\":1581:1605   */\n      tag_58\n        /* \"#utility.yul\":1599:1604   */\n      dup2\n        /* \"#utility.yul\":1581:1605   */\n      tag_21\n      jump\t// in\n    tag_58:\n        /* \"#utility.yul\":1574:1579   */\n      dup2\n        /* \"#utility.yul\":1571:1606   */\n      eq\n        /* \"#utility.yul\":1561:1624   */\n      tag_59\n      jumpi\n        /* \"#utility.yul\":1620:1621   */\n      0x00\n        /* \"#utility.yul\":1617:1618   */\n      dup1\n        /* \"#utility.yul\":1610:1622   */\n      revert\n        /* \"#utility.yul\":1561:1624   */\n    tag_59:\n        /* \"#utility.yul\":1508:1630   */\n      pop\n      jump\t// out\n        /* \"#utility.yul\":1636:1779   */\n    tag_33:\n        /* \"#utility.yul\":1693:1698   */\n      0x00\n        /* \"#utility.yul\":1724:1730   */\n      dup2\n        /* \"#utility.yul\":1718:1731   */\n      mload\n        /* \"#utility.yul\":1709:1731   */\n      swap1\n      pop\n        /* \"#utility.yul\":1740:1773   */\n      tag_61\n        /* \"#utility.yul\":1767:1772   */\n      dup2\n        /* \"#utility.yul\":1740:1773   */\n      tag_32\n      jump\t// in\n    tag_61:\n        /* \"#utility.yul\":1636:1779   */\n      swap3\n      swap2\n      pop\n      pop\n      jump\t// out\n        /* \"#utility.yul\":1785:2756   */\n    tag_16:\n        /* \"#utility.yul\":1888:1894   */\n      0x00\n        /* \"#utility.yul\":1896:1902   */\n      dup1\n        /* \"#utility.yul\":1904:1910   */\n      0x00\n        /* \"#utility.yul\":1912:1918   */\n      dup1\n        /* \"#utility.yul\":1920:1926   */\n      0x00\n        /* \"#utility.yul\":1969:1972   */\n      0xa0\n        /* \"#utility.yul\":1957:1966   */\n      dup7\n        /* \"#utility.yul\":1948:1955   */\n      dup9\n        /* \"#utility.yul\":1944:1967   */\n      sub\n        /* \"#utility.yul\":1940:1973   */\n      slt\n        /* \"#utility.yul\":1937:2057   */\n      iszero\n      tag_63\n      jumpi\n        /* \"#utility.yul\":1976:2055   */\n      tag_64\n      tag_24\n      jump\t// in\n    tag_64:\n        /* \"#utility.yul\":1937:2057   */\n    tag_63:\n        /* \"#utility.yul\":2096:2097   */\n      0x00\n        /* \"#utility.yul\":2121:2184   */\n      tag_65\n        /* \"#utility.yul\":2176:2183   */\n      dup9\n        /* \"#utility.yul\":2167:2173   */\n      dup3\n        /* \"#utility.yul\":2156:2165   */\n      dup10\n        /* \"#utility.yul\":2152:2174   */\n      add\n        /* \"#utility.yul\":2121:2184   */\n      tag_28\n      jump\t// in\n    tag_65:\n        /* \"#utility.yul\":2111:2184   */\n      swap6\n      pop\n        /* \"#utility.yul\":2067:2194   */\n      pop\n        /* \"#utility.yul\":2233:2235   */\n      0x20\n        /* \"#utility.yul\":2259:2322   */\n      tag_66\n        /* \"#utility.yul\":2314:2321   */\n      dup9\n        /* \"#utility.yul\":2305:2311   */\n      dup3\n        /* \"#utility.yul\":2294:2303   */\n      dup10\n        /* \"#utility.yul\":2290:2312   */\n      add\n        /* \"#utility.yul\":2259:2322   */\n      tag_31\n      jump\t// in\n    tag_66:\n        /* \"#utility.yul\":2249:2322   */\n      swap5\n      pop\n        /* \"#utility.yul\":2204:2332   */\n      pop\n        /* \"#utility.yul\":2371:2373   */\n      0x40\n        /* \"#utility.yul\":2397:2461   */\n      tag_67\n        /* \"#utility.yul\":2453:2460   */\n      dup9\n        /* \"#utility.yul\":2444:2450   */\n      dup3\n        /* \"#utility.yul\":2433:2442   */\n      dup10\n        /* \"#utility.yul\":2429:2451   */\n      add\n        /* \"#utility.yul\":2397:2461   */\n      tag_33\n      jump\t// in\n    tag_67:\n        /* \"#utility.yul\":2387:2461   */\n      swap4\n      pop\n        /* \"#utility.yul\":2342:2471   */\n      pop\n        /* \"#utility.yul\":2510:2512   */\n      0x60\n        /* \"#utility.yul\":2536:2600   */\n      tag_68\n        /* \"#utility.yul\":2592:2599   */\n      dup9\n        /* \"#utility.yul\":2583:2589   */\n      dup3\n        /* \"#utility.yul\":2572:2581   */\n      dup10\n        /* \"#utility.yul\":2568:2590   */\n      add\n        /* \"#utility.yul\":2536:2600   */\n      tag_33\n      jump\t// in\n    tag_68:\n        /* \"#utility.yul\":2526:2600   */\n      swap3\n      pop\n        /* \"#utility.yul\":2481:2610   */\n      pop\n        /* \"#utility.yul\":2649:2652   */\n      0x80\n        /* \"#utility.yul\":2676:2739   */\n      tag_69\n        /* \"#utility.yul\":2731:2738   */\n      dup9\n        /* \"#utility.yul\":2722:2728   */\n      dup3\n        /* \"#utility.yul\":2711:2720   */\n      dup10\n        /* \"#utility.yul\":2707:2729   */\n      add\n        /* \"#utility.yul\":2676:2739   */\n      tag_28\n      jump\t// in\n    tag_69:\n        /* \"#utility.yul\":2666:2739   */\n      swap2\n      pop\n        /* \"#utility.yul\":2620:2749   */\n      pop\n        /* \"#utility.yul\":1785:2756   */\n      swap3\n      swap6\n      pop\n      swap3\n      swap6\n      swap1\n      swap4\n      pop\n      jump\t// out\n        /* \"#utility.yul\":2762:2942   */\n    tag_34:\n        /* \"#utility.yul\":2810:2887   */\n      0x4e487b7100000000000000000000000000000000000000000000000000000000\n        /* \"#utility.yul\":2807:2808   */\n      0x00\n        /* \"#utility.yul\":2800:2888   */\n      mstore\n        /* \"#utility.yul\":2907:2911   */\n      0x12\n        /* \"#utility.yul\":2904:2905   */\n      0x04\n        /* \"#utility.yul\":2897:2912   */\n      mstore\n        /* \"#utility.yul\":2931:2935   */\n      0x24\n        /* \"#utility.yul\":2928:2929   */\n      0x00\n        /* \"#utility.yul\":2921:2936   */\n      revert\n        /* \"#utility.yul\":2948:3128   */\n    tag_35:\n        /* \"#utility.yul\":2996:3073   */\n      0x4e487b7100000000000000000000000000000000000000000000000000000000\n        /* \"#utility.yul\":2993:2994   */\n      0x00\n        /* \"#utility.yul\":2986:3074   */\n      mstore\n        /* \"#utility.yul\":3093:3097   */\n      0x11\n        /* \"#utility.yul\":3090:3091   */\n      0x04\n        /* \"#utility.yul\":3083:3098   */\n      mstore\n        /* \"#utility.yul\":3117:3121   */\n      0x24\n        /* \"#utility.yul\":3114:3115   */\n      0x00\n        /* \"#utility.yul\":3107:3122   */\n      revert\n        /* \"#utility.yul\":3134:3519   */\n    tag_18:\n        /* \"#utility.yul\":3173:3174   */\n      0x00\n        /* \"#utility.yul\":3190:3209   */\n      tag_73\n        /* \"#utility.yul\":3207:3208   */\n      dup3\n        /* \"#utility.yul\":3190:3209   */\n      tag_29\n      jump\t// in\n    tag_73:\n        /* \"#utility.yul\":3185:3209   */\n      swap2\n      pop\n        /* \"#utility.yul\":3223:3242   */\n      tag_74\n        /* \"#utility.yul\":3240:3241   */\n      dup4\n        /* \"#utility.yul\":3223:3242   */\n      tag_29\n      jump\t// in\n    tag_74:\n        /* \"#utility.yul\":3218:3242   */\n      swap3\n      pop\n        /* \"#utility.yul\":3261:3262   */\n      dup3\n        /* \"#utility.yul\":3251:3286   */\n      tag_75\n      jumpi\n        /* \"#utility.yul\":3266:3284   */\n      tag_76\n      tag_34\n      jump\t// in\n    tag_76:\n        /* \"#utility.yul\":3251:3286   */\n    tag_75:\n        /* \"#utility.yul\":3452:3453   */\n      0x01\n        /* \"#utility.yul\":3449:3450   */\n      0x00\n        /* \"#utility.yul\":3445:3454   */\n      sub\n        /* \"#utility.yul\":3442:3443   */\n      dup4\n        /* \"#utility.yul\":3439:3455   */\n      eq\n        /* \"#utility.yul\":3358:3424   */\n      0x8000000000000000000000000000000000000000000000000000000000000000\n        /* \"#utility.yul\":3355:3356   */\n      dup4\n        /* \"#utility.yul\":3352:3425   */\n      eq\n        /* \"#utility.yul\":3335:3465   */\n      and\n        /* \"#utility.yul\":3332:3488   */\n      iszero\n      tag_77\n      jumpi\n        /* \"#utility.yul\":3468:3486   */\n      tag_78\n      tag_35\n      jump\t// in\n    tag_78:\n        /* \"#utility.yul\":3332:3488   */\n    tag_77:\n        /* \"#utility.yul\":3511:3512   */\n      dup3\n        /* \"#utility.yul\":3508:3509   */\n      dup3\n        /* \"#utility.yul\":3503:3513   */\n      sdiv\n        /* \"#utility.yul\":3498:3513   */\n      swap1\n      pop\n        /* \"#utility.yul\":3134:3519   */\n      swap3\n      swap2\n      pop\n      pop\n      jump\t// out\n\n    auxdata: 0xa2646970667358221220f71c3d3ba0501872ddeecf4bc437412b55fad5d29570b3ad6fca8ee0c93e14cb64736f6c63430008120033\n}\n",
				"bytecode": {
					"linkReferences": {},
					"object": "6080604052600560005534801561001557600080fd5b50610389806100256000396000f3fe608060405234801561001057600080fd5b50600436106100365760003560e01c806398d5fdca1461003b578063f36089ec14610059575b600080fd5b610043610077565b604051610050919061014c565b60405180910390f35b61006161011f565b60405161006e919061014c565b60405180910390f35b60008073694aa1769357215de4fac081bf1f309adc325306905060008173ffffffffffffffffffffffffffffffffffffffff1663feaf968c6040518163ffffffff1660e01b815260040160a060405180830381865afa1580156100de573d6000803e3d6000fd5b505050506040513d601f19601f820116820180604052508101906101029190610210565b5050509150506305f5e1008161011891906102e9565b9250505090565b60008061012a610077565b90508091505090565b6000819050919050565b61014681610133565b82525050565b6000602082019050610161600083018461013d565b92915050565b600080fd5b600069ffffffffffffffffffff82169050919050565b61018b8161016c565b811461019657600080fd5b50565b6000815190506101a881610182565b92915050565b6000819050919050565b6101c1816101ae565b81146101cc57600080fd5b50565b6000815190506101de816101b8565b92915050565b6101ed81610133565b81146101f857600080fd5b50565b60008151905061020a816101e4565b92915050565b600080600080600060a0868803121561022c5761022b610167565b5b600061023a88828901610199565b955050602061024b888289016101cf565b945050604061025c888289016101fb565b935050606061026d888289016101fb565b925050608061027e88828901610199565b9150509295509295909350565b7f4e487b7100000000000000000000000000000000000000000000000000000000600052601260045260246000fd5b7f4e487b7100000000000000000000000000000000000000000000000000000000600052601160045260246000fd5b60006102f4826101ae565b91506102ff836101ae565b92508261030f5761030e61028b565b5b600160000383147f800000000000000000000000000000000000000000000000000000000000000083141615610348576103476102ba565b5b82820590509291505056fea2646970667358221220f71c3d3ba0501872ddeecf4bc437412b55fad5d29570b3ad6fca8ee0c93e14cb64736f6c63430008120033",
					"opcodes": "PUSH1 0x80 PUSH1 0x40 MSTORE PUSH1 0x5 PUSH1 0x0 SSTORE CALLVALUE DUP1 ISZERO PUSH2 0x15 JUMPI PUSH1 0x0 DUP1 REVERT JUMPDEST POP PUSH2 0x389 DUP1 PUSH2 0x25 PUSH1 0x0 CODECOPY PUSH1 0x0 RETURN INVALID PUSH1 0x80 PUSH1 0x40 MSTORE CALLVALUE DUP1 ISZERO PUSH2 0x10 JUMPI PUSH1 0x0 DUP1 REVERT JUMPDEST POP PUSH1 0x4 CALLDATASIZE LT PUSH2 0x36 JUMPI PUSH1 0x0 CALLDATALOAD PUSH1 0xE0 SHR DUP1 PUSH4 0x98D5FDCA EQ PUSH2 0x3B JUMPI DUP1 PUSH4 0xF36089EC EQ PUSH2 0x59 JUMPI JUMPDEST PUSH1 0x0 DUP1 REVERT JUMPDEST PUSH2 0x43 PUSH2 0x77 JUMP JUMPDEST PUSH1 0x40 MLOAD PUSH2 0x50 SWAP2 SWAP1 PUSH2 0x14C JUMP JUMPDEST PUSH1 0x40 MLOAD DUP1 SWAP2 SUB SWAP1 RETURN JUMPDEST PUSH2 0x61 PUSH2 0x11F JUMP JUMPDEST PUSH1 0x40 MLOAD PUSH2 0x6E SWAP2 SWAP1 PUSH2 0x14C JUMP JUMPDEST PUSH1 0x40 MLOAD DUP1 SWAP2 SUB SWAP1 RETURN JUMPDEST PUSH1 0x0 DUP1 PUSH20 0x694AA1769357215DE4FAC081BF1F309ADC325306 SWAP1 POP PUSH1 0x0 DUP2 PUSH20 0xFFFFFFFFFFFFFFFFFFFFFFFFFFFFFFFFFFFFFFFF AND PUSH4 0xFEAF968C PUSH1 0x40 MLOAD DUP2 PUSH4 0xFFFFFFFF AND PUSH1 0xE0 SHL DUP2 MSTORE PUSH1 0x4 ADD PUSH1 0xA0 PUSH1 0x40 MLOAD DUP1 DUP4 SUB DUP2 DUP7 GAS STATICCALL ISZERO DUP1 ISZERO PUSH2 0xDE JUMPI RETURNDATASIZE PUSH1 0x0 DUP1 RETURNDATACOPY RETURNDATASIZE PUSH1 0x0 REVERT JUMPDEST POP POP POP POP PUSH1 0x40 MLOAD RETURNDATASIZE PUSH1 0x1F NOT PUSH1 0x1F DUP3 ADD AND DUP3 ADD DUP1 PUSH1 0x40 MSTORE POP DUP2 ADD SWAP1 PUSH2 0x102 SWAP2 SWAP1 PUSH2 0x210 JUMP JUMPDEST POP POP POP SWAP2 POP POP PUSH4 0x5F5E100 DUP2 PUSH2 0x118 SWAP2 SWAP1 PUSH2 0x2E9 JUMP JUMPDEST SWAP3 POP POP POP SWAP1 JUMP JUMPDEST PUSH1 0x0 DUP1 PUSH2 0x12A PUSH2 0x77 JUMP JUMPDEST SWAP1 POP DUP1 SWAP2 POP POP SWAP1 JUMP JUMPDEST PUSH1 0x0 DUP2 SWAP1 POP SWAP2 SWAP1 POP JUMP JUMPDEST PUSH2 0x146 DUP2 PUSH2 0x133 JUMP JUMPDEST DUP3 MSTORE POP POP JUMP JUMPDEST PUSH1 0x0 PUSH1 0x20 DUP3 ADD SWAP1 POP PUSH2 0x161 PUSH1 0x0 DUP4 ADD DUP5 PUSH2 0x13D JUMP JUMPDEST SWAP3 SWAP2 POP POP JUMP JUMPDEST PUSH1 0x0 DUP1 REVERT JUMPDEST PUSH1 0x0 PUSH10 0xFFFFFFFFFFFFFFFFFFFF DUP3 AND SWAP1 POP SWAP2 SWAP1 POP JUMP JUMPDEST PUSH2 0x18B DUP2 PUSH2 0x16C JUMP JUMPDEST DUP2 EQ PUSH2 0x196 JUMPI PUSH1 0x0 DUP1 REVERT JUMPDEST POP JUMP JUMPDEST PUSH1 0x0 DUP2 MLOAD SWAP1 POP PUSH2 0x1A8 DUP2 PUSH2 0x182 JUMP JUMPDEST SWAP3 SWAP2 POP POP JUMP JUMPDEST PUSH1 0x0 DUP2 SWAP1 POP SWAP2 SWAP1 POP JUMP JUMPDEST PUSH2 0x1C1 DUP2 PUSH2 0x1AE JUMP JUMPDEST DUP2 EQ PUSH2 0x1CC JUMPI PUSH1 0x0 DUP1 REVERT JUMPDEST POP JUMP JUMPDEST PUSH1 0x0 DUP2 MLOAD SWAP1 POP PUSH2 0x1DE DUP2 PUSH2 0x1B8 JUMP JUMPDEST SWAP3 SWAP2 POP POP JUMP JUMPDEST PUSH2 0x1ED DUP2 PUSH2 0x133 JUMP JUMPDEST DUP2 EQ PUSH2 0x1F8 JUMPI PUSH1 0x0 DUP1 REVERT JUMPDEST POP JUMP JUMPDEST PUSH1 0x0 DUP2 MLOAD SWAP1 POP PUSH2 0x20A DUP2 PUSH2 0x1E4 JUMP JUMPDEST SWAP3 SWAP2 POP POP JUMP JUMPDEST PUSH1 0x0 DUP1 PUSH1 0x0 DUP1 PUSH1 0x0 PUSH1 0xA0 DUP7 DUP9 SUB SLT ISZERO PUSH2 0x22C JUMPI PUSH2 0x22B PUSH2 0x167 JUMP JUMPDEST JUMPDEST PUSH1 0x0 PUSH2 0x23A DUP9 DUP3 DUP10 ADD PUSH2 0x199 JUMP JUMPDEST SWAP6 POP POP PUSH1 0x20 PUSH2 0x24B DUP9 DUP3 DUP10 ADD PUSH2 0x1CF JUMP JUMPDEST SWAP5 POP POP PUSH1 0x40 PUSH2 0x25C DUP9 DUP3 DUP10 ADD PUSH2 0x1FB JUMP JUMPDEST SWAP4 POP POP PUSH1 0x60 PUSH2 0x26D DUP9 DUP3 DUP10 ADD PUSH2 0x1FB JUMP JUMPDEST SWAP3 POP POP PUSH1 0x80 PUSH2 0x27E DUP9 DUP3 DUP10 ADD PUSH2 0x199 JUMP JUMPDEST SWAP2 POP POP SWAP3 SWAP6 POP SWAP3 SWAP6 SWAP1 SWAP4 POP JUMP JUMPDEST PUSH32 0x4E487B7100000000000000000000000000000000000000000000000000000000 PUSH1 0x0 MSTORE PUSH1 0x12 PUSH1 0x4 MSTORE PUSH1 0x24 PUSH1 0x0 REVERT JUMPDEST PUSH32 0x4E487B7100000000000000000000000000000000000000000000000000000000 PUSH1 0x0 MSTORE PUSH1 0x11 PUSH1 0x4 MSTORE PUSH1 0x24 PUSH1 0x0 REVERT JUMPDEST PUSH1 0x0 PUSH2 0x2F4 DUP3 PUSH2 0x1AE JUMP JUMPDEST SWAP2 POP PUSH2 0x2FF DUP4 PUSH2 0x1AE JUMP JUMPDEST SWAP3 POP DUP3 PUSH2 0x30F JUMPI PUSH2 0x30E PUSH2 0x28B JUMP JUMPDEST JUMPDEST PUSH1 0x1 PUSH1 0x0 SUB DUP4 EQ PUSH32 0x8000000000000000000000000000000000000000000000000000000000000000 DUP4 EQ AND ISZERO PUSH2 0x348 JUMPI PUSH2 0x347 PUSH2 0x2BA JUMP JUMPDEST JUMPDEST DUP3 DUP3 SDIV SWAP1 POP SWAP3 SWAP2 POP POP JUMP INVALID LOG2 PUSH5 0x6970667358 0x22 SLT KECCAK256 0xF7 SHR RETURNDATASIZE EXTCODESIZE LOG0 POP XOR PUSH19 0xDDEECF4BC437412B55FAD5D29570B3AD6FCA8E 0xE0 0xC9 RETURNDATACOPY EQ 0xCB PUSH5 0x736F6C6343 STOP ADDMOD SLT STOP CALLER "
				},
				"gasEstimates": {
					"creation": {
						"codeDepositCost": "181000",
						"executionCost": "22332",
						"totalCost": "203332"
					},
					"external": {
						"getConversionRate()": "infinite",
						"getPrice()": "infinite"
					}
				},
				"methodIdentifiers": {
					"getConversionRate()": "f36089ec",
					"getPrice()": "98d5fdca"
				}
			},
			"storageLayout": {
				"storage": [
					{
						"astId": 52,
						"contract": "FundMe.sol:FundeMe",
						"label": "minimumUsd",
						"offset": 0,
						"slot": "0",
						"type": "t_uint256"
					}
				],
				"types": {
					"t_uint256": {
						"encoding": "inplace",
						"label": "uint256",
						"numberOfBytes": "32"
					}
				}
			},
			"userdoc": {
				"kind": "user",
				"methods": {},
				"version": 1
			}
		}
	}
}